{
  "contractName": "MyToken",
  "abi": [
    {
      "inputs": [],
      "stateMutability": "nonpayable",
      "type": "constructor"
    },
    {
      "inputs": [
        {
          "internalType": "address",
          "name": "",
          "type": "address"
        }
      ],
      "name": "balanceOf",
      "outputs": [
        {
          "internalType": "uint256",
          "name": "",
          "type": "uint256"
        }
      ],
      "stateMutability": "view",
      "type": "function"
    },
    {
      "inputs": [],
      "name": "name",
      "outputs": [
        {
          "internalType": "string",
          "name": "",
          "type": "string"
        }
      ],
      "stateMutability": "view",
      "type": "function"
    },
    {
      "inputs": [],
      "name": "symbol",
      "outputs": [
        {
          "internalType": "string",
          "name": "",
          "type": "string"
        }
      ],
      "stateMutability": "view",
      "type": "function"
    },
    {
      "inputs": [],
      "name": "totalSupply",
      "outputs": [
        {
          "internalType": "uint256",
          "name": "",
          "type": "uint256"
        }
      ],
      "stateMutability": "view",
      "type": "function"
    },
    {
      "inputs": [
        {
          "internalType": "address",
          "name": "_to",
          "type": "address"
        },
        {
          "internalType": "uint256",
          "name": "_value",
          "type": "uint256"
        }
      ],
      "name": "transfer",
      "outputs": [],
      "stateMutability": "nonpayable",
      "type": "function"
    }
  ],
  "bytecode": "0x60806040526040518060400160405280600781526020017f4d79546f6b656e000000000000000000000000000000000000000000000000008152505f908162000049919062000353565b506040518060400160405280600281526020017f4d540000000000000000000000000000000000000000000000000000000000008152506001908162000090919062000353565b50620f4240600255348015620000a4575f80fd5b5060025460035f3373ffffffffffffffffffffffffffffffffffffffff1673ffffffffffffffffffffffffffffffffffffffff1681526020019081526020015f208190555062000437565b5f81519050919050565b7f4e487b71000000000000000000000000000000000000000000000000000000005f52604160045260245ffd5b7f4e487b71000000000000000000000000000000000000000000000000000000005f52602260045260245ffd5b5f60028204905060018216806200016b57607f821691505b60208210810362000181576200018062000126565b5b50919050565b5f819050815f5260205f209050919050565b5f6020601f8301049050919050565b5f82821b905092915050565b5f60088302620001e57fffffffffffffffffffffffffffffffffffffffffffffffffffffffffffffffff82620001a8565b620001f18683620001a8565b95508019841693508086168417925050509392505050565b5f819050919050565b5f819050919050565b5f6200023b620002356200022f8462000209565b62000212565b62000209565b9050919050565b5f819050919050565b62000256836200021b565b6200026e620002658262000242565b848454620001b4565b825550505050565b5f90565b6200028462000276565b620002918184846200024b565b505050565b5b81811015620002b857620002ac5f826200027a565b60018101905062000297565b5050565b601f8211156200030757620002d18162000187565b620002dc8462000199565b81016020851015620002ec578190505b62000304620002fb8562000199565b83018262000296565b50505b505050565b5f82821c905092915050565b5f620003295f19846008026200030c565b1980831691505092915050565b5f62000343838362000318565b9150826002028217905092915050565b6200035e82620000ef565b67ffffffffffffffff8111156200037a5762000379620000f9565b5b62000386825462000153565b62000393828285620002bc565b5f60209050601f831160018114620003c9575f8415620003b4578287015190505b620003c0858262000336565b8655506200042f565b601f198416620003d98662000187565b5f5b828110156200040257848901518255600182019150602085019450602081019050620003db565b868310156200042257848901516200041e601f89168262000318565b8355505b6001600288020188555050505b505050505050565b6106b580620004455f395ff3fe608060405234801561000f575f80fd5b5060043610610055575f3560e01c806306fdde031461005957806318160ddd1461007757806370a082311461009557806395d89b41146100c5578063a9059cbb146100e3575b5f80fd5b6100616100ff565b60405161006e91906103e5565b60405180910390f35b61007f61018a565b60405161008c919061041d565b60405180910390f35b6100af60048036038101906100aa9190610494565b610190565b6040516100bc919061041d565b60405180910390f35b6100cd6101a5565b6040516100da91906103e5565b60405180910390f35b6100fd60048036038101906100f891906104e9565b610231565b005b5f805461010b90610554565b80601f016020809104026020016040519081016040528092919081815260200182805461013790610554565b80156101825780601f1061015957610100808354040283529160200191610182565b820191905f5260205f20905b81548152906001019060200180831161016557829003601f168201915b505050505081565b60025481565b6003602052805f5260405f205f915090505481565b600180546101b290610554565b80601f01602080910402602001604051908101604052809291908181526020018280546101de90610554565b80156102295780601f1061020057610100808354040283529160200191610229565b820191905f5260205f20905b81548152906001019060200180831161020c57829003601f168201915b505050505081565b8060035f3373ffffffffffffffffffffffffffffffffffffffff1673ffffffffffffffffffffffffffffffffffffffff1681526020019081526020015f205410156102b1576040517f08c379a00000000000000000000000000000000000000000000000000000000081526004016102a8906105ce565b60405180910390fd5b8060035f3373ffffffffffffffffffffffffffffffffffffffff1673ffffffffffffffffffffffffffffffffffffffff1681526020019081526020015f205f8282546102fd9190610619565b925050819055508060035f8473ffffffffffffffffffffffffffffffffffffffff1673ffffffffffffffffffffffffffffffffffffffff1681526020019081526020015f205f828254610350919061064c565b925050819055505050565b5f81519050919050565b5f82825260208201905092915050565b5f5b83811015610392578082015181840152602081019050610377565b5f8484015250505050565b5f601f19601f8301169050919050565b5f6103b78261035b565b6103c18185610365565b93506103d1818560208601610375565b6103da8161039d565b840191505092915050565b5f6020820190508181035f8301526103fd81846103ad565b905092915050565b5f819050919050565b61041781610405565b82525050565b5f6020820190506104305f83018461040e565b92915050565b5f80fd5b5f73ffffffffffffffffffffffffffffffffffffffff82169050919050565b5f6104638261043a565b9050919050565b61047381610459565b811461047d575f80fd5b50565b5f8135905061048e8161046a565b92915050565b5f602082840312156104a9576104a8610436565b5b5f6104b684828501610480565b91505092915050565b6104c881610405565b81146104d2575f80fd5b50565b5f813590506104e3816104bf565b92915050565b5f80604083850312156104ff576104fe610436565b5b5f61050c85828601610480565b925050602061051d858286016104d5565b9150509250929050565b7f4e487b71000000000000000000000000000000000000000000000000000000005f52602260045260245ffd5b5f600282049050600182168061056b57607f821691505b60208210810361057e5761057d610527565b5b50919050565b7f496e73756666696369656e742062616c616e63650000000000000000000000005f82015250565b5f6105b8601483610365565b91506105c382610584565b602082019050919050565b5f6020820190508181035f8301526105e5816105ac565b9050919050565b7f4e487b71000000000000000000000000000000000000000000000000000000005f52601160045260245ffd5b5f61062382610405565b915061062e83610405565b9250828203905081811115610646576106456105ec565b5b92915050565b5f61065682610405565b915061066183610405565b9250828201905080821115610679576106786105ec565b5b9291505056fea264697066735822122036080672ab6103e7dff1eece1dba81e456ce40304930509e0aa7af2888079baa64736f6c63430008150033",
  "immutableReferences": {},
  "source": "// MyToken.sol\r\n// SPDX-License-Identifier: MIT\r\npragma solidity ^0.8.0;\r\n\r\ncontract MyToken {\r\n    string public name = \"MyToken\";\r\n    string public symbol = \"MT\";\r\n    uint256 public totalSupply = 1000000;\r\n    mapping(address => uint256) public balanceOf;\r\n\r\n    constructor() {\r\n        balanceOf[msg.sender] = totalSupply;\r\n    }\r\n\r\n    function transfer(address _to, uint256 _value) public {\r\n        require(balanceOf[msg.sender] >= _value, \"Insufficient balance\");\r\n        balanceOf[msg.sender] -= _value;\r\n        balanceOf[_to] += _value;\r\n    }\r\n}\r\n",
  "sourcePath": "C:\\Users\\simon\\OneDrive\\Documents\\MyCode\\NUS\\Fintechs\\contracts\\TestTk.sol",
  "compiler": {
    "name": "solc",
    "version": "0.8.21+commit.d9974bed.Emscripten.clang"
  },
  "schemaVersion": "3.4.16",
  "updatedAt": "2024-01-05T08:29:59.077Z",
  "devdoc": {
    "kind": "dev",
    "methods": {},
    "version": 1
  },
  "userdoc": {
    "kind": "user",
    "methods": {},
    "version": 1
  }
}